:020000041000EA
:10000000002008205D0100101301001015010010F0
:100010001101001011010010110100101101001058
:100020001101001011010010110100101701001042
:100030001101001011010010190100101B01001026
:100040001D0100101D0100101D0100101D010010F8
:100050001D0100101D0100101D0100101D010010E8
:100060001D0100101D0100101D0100101D010010D8
:100070001D0100101D0100101D0100101D010010C8
:100080001D0100101D0100101D0100101D010010B8
:100090001D0100101D0100101D0100101D010010A8
:1000A0001D0100101D0100101D0100101D01001098
:1000B0001D0100101D0100101D0100101D01001088
:1000C0001D0100101D0100101D0100101D01001078
:1000D0001D0100101D0100101D0100101D01001068
:1000E0001D0100101D0100101D0100101D01001058
:1000F0001D0100101D0100101D0100101D01001048
:100100001D0100101D0100101D0100101D01001037
:1001100000BE00BE00BE00BE00BE00BEEFF3058004
:10012000103800BEF2EB88710002001024020010AB
:10013000A801001090A31AE7D3DEFFFF42012110AF
:10014000FF01000064050100793512AB4FF000009B
:100150002349086006C881F3088810474FF05040D3
:10016000006810B14FF00000F2E70FA40ECC002998
:1001700002D000F015F8F9E71A491B4A002000E008
:1001800001C19142FCD1002080F30A8817498847B9
:10019000174988471749884700BEFDE701C901C2D2
:1001A0009A42FBD3704700BF2402001010010020C8
:1001B0009CD90020B0DA0010A0D900208C050120C5
:1001C0009C06011000000820000008209C06011079
:1001D00000100820001008200000000070470000F8
:1001E00008ED00E08C050120D4AF05205944002023
:0801F000B90200201D440020AB
:0801F8008083001001000000EB
:1002000080F300208CF3002098F30020A4F300205A
:10021000B0F30020BCF30020C8F3002004F4002059
:04022000F8F30020CF
:10022400F8B500BF064B0749C91A891048BF013108
:10023400491003D0044B0BB101481847704700BF65
:100244008C0501208C0501200000000008B5054B39
:100254001BB105490548AFF30080BDE80840FFF72E
:10026400E1BF00BF0000000034A705209CD9002096
:10027400002110B5244803F09FFB244800F018FD2A
:1002840000F0CCF800283ADB214800F011FD0524E9
:10029400204806F089FB48BBC82003F0B5F91E4886
:1002A40000F006FD1D491E4804F0E0FB07EE900A2D
:1002B4009FED1C7AF8EEE77AC7EE877A17EE900A7C
:1002C40008F072F902460B46174800F0F1FC3220A0
:1002D40003F09AF900F034FF012803D000210A4802
:1002E40003F06AFB094800F0E3FCF3E7C82003F0DD
:1002F4008BF9013CCCD10D4800F006FDCFE70C484A
:1003040000F002FDC0E700BF0CA705209CE7002019
:10031400C4E70020949C0520F4E70020C03B470379
:10032400008008400024744904E80020D8E7002035
:10033400A8E70020F0B587B00C4605AB04AA03A9D2
:10034400064603F0A3FC18B98CBB204607B0F0BDE9
:100354000122DDE90346184B059F0546114600932B
:10036400052003F0A7FB334607FB06F622460121CE
:100374001248009703F058FDB4FBF6F4104B00222A
:1003840000930221042003F095FB234600940022ED
:100394000121052003F08EFB0022234600942C4605
:1003A4001146062003F086FB204607B0F0BD314617
:1003B400044802F027FA00BF006CDC02000005408C
:1003C400001BB70024E8002008B503F095FD322097
:1003D40003F01AF9132003F06DFD322003F014F931
:1003E40001214FF4FA20FFF7A5FF322003F00CF9A6
:1003F40000F09CFB04F006FA4FF050431A6DD1074D
:1004040003D59A6D1A6DD207FBD4034804F070FA31
:1004140000F00CFCFCE700BF6101002070B50D206A
:1004240082B002F0CBF90B2002F0C8F90C2002F0E4
:10043400C5F90A2002F0C2F90D244FF0010545EC7C
:10044400444045EC40402749274804F095FA0121EF
:100454000B2002F01FF901210C2002F01BF90121ED
:100464000A2002F017F90A2003F0CEF866234FF0B1
:1004740000068DF8003046EC4040012269461A48D7
:100484000DF0FAFB45EC404099238DF8003046EC22
:1004940040400122694614480DF0EEFB45EC404013
:1004A4000A2003F0B1F846EC40409F23694601223C
:1004B4000D488DF800300DF0DFFB694603220A4831
:1004C4000DF0DAFB06236A46002107480DF01CFCF8
:1004D40045EC40409DF801005D3818BF4FF0FF30F7
:1004E40002B070BD40787D0100800840F8B50F4629
:1004F40015461E4612B302230422002463F30704A4
:10050400030C63F30F24030A114963F3174460F3E4
:100514001F640D234FF000000C6040EC40300D4888
:100524000DF0AAFB6DB13A4631460A480DF0A4FB22
:100534000D234FF0010242EC4030F8BD0B2305229D
:10054400DBE73B463246294602480DF0DDFBEFE788
:10055400509C0520008008402DE9F04FB2F5806FD3
:10056400904681460C4683B051D3A2F5806A534627
:100574004FF0000B6FF3090301F58066254D0193DD
:100584001E44471A0222210C63BA4FF00D0A697007
:100594006B802A704BEC40A0042229461E480DF0C3
:1005A4006BFB4FF4806239191B480DF065FB4FF06B
:1005B400010242EC40A004F58064B442E2D1019B04
:1005C400C8F309084B4403F58069B8F1000F02D160
:1005D40003B0BDE8F08F02220E49330C76BA4B709B
:1005E4000D244FF000034E800A7043EC4040042277
:1005F40009480DF041FB4246494607480DF03CFBD3
:100604004FF0010343EC404003B0BDE8F08F0E46C9
:10061400DBE700BF509C052000800840000000007C
:100624009FED097B10B40A4C0A4B84ED007B4FF418
:100634009022002108485DF8044B83ED007B09F00B
:1006440025B800BFAFF300800000000000000000E8
:10065400D0070120D8070120001C01202DE9F04714
:1006640007468C4B1546C0F30C1202EBC20413F878
:100674002400C7F3474840450E464FEA840C82B035
:1006840007F00F094FEAC20103EB84047AD08818FB
:1006940003EB8000847C90F823E0444500F08880DC
:1006A4007D4C881803EB800090F811A0206801307D
:1006B4002060606840F100001AF0040F606049D1C6
:1006C4000CF1120C03EB0C040EF0FB0E4AF0040ABE
:1006D400114403EB810383F823E083F811A0637CC6
:1006E40003F00303032B7CD0631C0022102127F0AA
:1006F4000F00FFF7FBFE012384F80080637435B319
:100704006B1E052B7AD909F102032344F31A022B39
:1007140040F2BA8009F10103E158AA08012A3160C4
:1007240023441ED05968022A716005D09968032AAF
:10073400B1601CBFDB68F360AB0708D025F003038E
:100744004C44E2185278F2545A1C95420EDC02B022
:10075400BDE8F08703EB0C040AF0FB0A4EF0040E2C
:10076400B6E74C446379052233710423A118497810
:1007740002339D42B154EADD1C446278F25402B063
:10078400BDE8F087607C10F0010F80D0434A20F070
:1007940004001368607401331360536843F1000369
:1007A400536094F8233043F0040384F82330A6E71D
:1007B4001EF0010F3FF474AF0CF1120C03EB0C04A8
:1007C400437C364A43F00403437413682EF0040E4A
:1007D40001331360536880F823E043F1000353604E
:1007E4008DE7234613F801CB10011021012240EAC2
:1007F4004C400193FFF77AFE019B76E74C44637803
:10080400012D3370A3D0A378022D73709FD0E378A9
:10081400032DB3709BD02379042DF37097D06379A3
:10082400052D337193D0A379062D73718FD0E3799D
:10083400072DB3718BD0237A082DF37187D0637A97
:10084400092D337283D0A37A0A2D73723FF47FAFDC
:10085400E37A0B2DB3723FF47AAF237B0C2DF37242
:100864003FF475AF637B0D2D33733FF470AFA37BFF
:100874000E2D73733FF46BAFE37B0F2DB3733FF413
:1008840066AF237CF37362E74C4463783370A378D8
:100894007370BCE7001C0120D8070120D007012099
:1008A4002DE9F04707469E4B1546C0F30C1202EBA8
:1008B400C20413F82400C7F3474948450E464FEADB
:1008C400840C82B007F00F084FEAC20103EB8404E2
:1008D40000F08280881803EB8000847C90F823E089
:1008E4004C4500F092808F4C881803EB800090F800
:1008F40011A0206801302060606840F100001AF007
:10090400040F60604BD10CF1120C03EB0C040EF0DD
:10091400FB0E4AF0040A114403EB810383F823E03D
:1009240083F811A0637C03F00303032B00F0898098
:10093400631C1021002227F00F00FFF7D7FD0123CD
:100944000321637484F800902DB36B1E052B40F2D1
:10095400858008F101002218731CD31A022B40F27F
:10096400D78033682350AB08012B1FD07068022B4B
:10097400506005D0B068032B90601CBFF368D3604F
:10098400AB0708D025F00303F05CE2184244507032
:100994005A1C954210DC617402B0BDE8F08703EB89
:1009A4000C040AF0FB0A4EF0040EB4E7327904EBAF
:1009B40008035A7104230522B05C023322444244E2
:1009C4009D425070E7DDF25CA044984488F8012011
:1009D400617402B0BDE8F087607C10F0010F3FF451
:1009E40079AF514A20F00400136840F0020101334A
:1009F40013605368607443F10003536094F8233028
:100A040043F0040384F823309EE71EF0010F3FF403
:100A14006AAF0CF1120C03EB0C04437C424A43F022
:100A24000403437413682EF0040E013380F823E0AA
:100A340013605368617C43F10003536041F0020189
:100A440082E7234613F801CB10011021012240EA6A
:100A54004C400193FFF74AFD019B6AE73378A044B9
:100A6400012D88F8013096D07378022D88F8023071
:100A740091D0B378032D88F803308CD0F378042D0B
:100A840088F8043087D03379052D88F8053082D072
:100A94007379062D88F806303FF47DAFB379072DBE
:100AA40088F807303FF477AFF379082D88F80830D9
:100AB4003FF471AF337A092D88F809303FF46BAFF6
:100AC400737A0A2D88F80A303FF465AFB37A0B2D98
:100AD40088F80B303FF45FAFF37A0C2D88F80C30B4
:100AE4003FF459AF337B0D2D88F80D303FF453AFED
:100AF400737B0E2D88F80E303FF44DAFB37B0F2D72
:100B040088F80F303FF447AFF37B88F8103042E7A2
:100B14003378A04488F80130737888F80230A8E765
:100B2400001C0120D8070120D007012010B500F0D7
:100B340001F90021084605F08FFA01F003FF402275
:100B440003460121064802F06DFE01F0FBFEBDE8FC
:100B54001040034640220121024802F063BE00BF58
:100B640098A705200CA7052070B500262C4D82B04F
:100B74002B68EFF3108172B6D3E8CF0F012200285F
:100B8400FAD1C3E8402F0028F6D1BFF35F8F2B8939
:100B94006A8928689C1A02D5EB8901331C44C0E891
:100BA4008F6F81F31088A4B128460DF1060102F07D
:100BB40003FF002004F0C4FF0028D9D09DF80630BC
:100BC40001220DF1070100208DF8073005F06EF8C1
:100BD400CEE7204604F0B4FF28B9002004F0B0FFAB
:100BE400B8B902B070BD204604F0C0FF0028F4D0AC
:100BF400402220460B4904F0C5FF0028EDD0094CE3
:100C0400251821460848013402F01EFEAC42F8D1F2
:100C1400E3E7002002B0BDE8704004F0FFBF00BF6E
:100C240098A70520089C05200CA7052008B50021DD
:100C34004FF0FF3004F0BAF9FFF796FFBDE8084023
:100C440000F01ABA034600B583B00DF10701064857
:100C54008DF8073002F072FE04480DF1070102F02E
:100C64006DFE03B05DF804FB98A7052050AE052087
:100C740030B583B0044608F031FE10F0FF0011D007
:100C8400013C251814F8013F07480DF107018DF8C0
:100C9400073002F053FE05480DF1070102F04EFE45
:100CA400AC42EFD103B030BD98A7052050AE05206B
:100CB4000FB430B583B006AA52F8041B0F48019252
:100CC40008F04AFC0D4808F009FE88B10B4C2518C1
:100CD40014F8013B0A480DF103018DF8033002F0CA
:100CE4002DFE08480DF1030102F028FEAC42EFD1BD
:100CF40003B0BDE8304004B0704700BFE8AD052044
:100D040098A7052050AE05200FB400B583B004AAFF
:100D140052F8041B0548019208F01EFC0448FFF732
:100D2400A7FF0248FFF7A4FFFEE700BFE8AD0520D8
:100D340058E8002010B51B211A2007F0A7FA122248
:100D44001121102006F0C4FE074806F051FE0748A2
:100D540006F04EFE01F0F6FDBDE8104003464022C9
:100D64000121034802F05EBD60E800207CE8002019
:100D740050AE05204B28F8B54FD033D8482861D061
:100D84004A282ED1002A66D13C4B3D491B680F6886
:100D9400342B0BDC352407FB04F43A483A4920444D
:100DA4002144C254CA540133352BFAD11C2F18D80C
:100DB400352407FB0444334D334B25447E1C1C442B
:100DC40028463522002107F013F801362046352243
:100DD400002107F00DF81E2E05F1350504F1350448
:100DE400EED1F8BD6D28FCD1002A3BD00439274C44
:100DF400274E284D01EB820203E0E35C2B70914205
:100E0400EFD051F8043FA3F128001E3B072BF4D97F
:100E140007289CBF235C3370F1E7002AE1D1174B0C
:100E24001B68342BDDDC3525154916480C6816493A
:100E340005FB04F420442144C254CA540133352B25
:100E4400FAD1F8BDA2B1022ACBD1D1E90010BDE894
:100E5400F84006F0AFBC0B68022BC2D1BDE8F840E5
:100E640006F0B2BC07200B49094B08701A70F8BD94
:100E74001146BDE8F840104606F09CBC809C052055
:100E8400849C0520B0A705208C130120FCEC0020D5
:100E9400C9AF052049F90020F0B59BB0044608F01D
:100EA4001DFD2318012813F8016C08D8002401AF94
:100EB400224639463046FFF75DFF1BB0F0BD2046A1
:100EC400144908F031FC0028F0D001AF3D4600245D
:100ED400037801345BB918460E4945F8043B08F021
:100EE40023FC0028E4D003780134002BF3D007F06E
:100EF40073FD03460749002045F8043B08F014FC41
:100F04000028E5D1224639463046FFF733FF1BB0AF
:100F1400F0BD00BF88E800202DE9F041304A9AB0C6
:100F24001368EFF3108072B6D3E8CF4F0121002C81
:100F3400FAD1C3E8441F002CF6D1BFF35F8F1389A5
:100F440051895B1A02D5D18901310B4400241268FE
:100F5400C2E88F4F80F3108813B91AB0BDE8F0814E
:100F64001F4801A902F028FD9DF804001B2804D0A5
:100F74001AB0BDE8F04106F0DDBC194801A902F041
:100F84001BFD9DF804305B2BE7D1DFF8588001AFDF
:100F940013480DF1030102F055FD9DF803506E1C3A
:100FA40018F806309A0713D013F0040307F8015B0E
:100FB40004F10104ECD13B2DEAD06C4408480DF156
:100FC4000301237102F0F8FC01A8FFF765FFC4E7F1
:100FD40003480DF1030102F0EFFC18F80630E3E7D3
:100FE40050AE052084F6002000B583B007F00CF95C
:100FF40008B307F01FF9A0F108020346ADF8060094
:101004000D2A08D8DFE802F02F072D2B0707070762
:1010140007070707071A10F4807F0DF1060113482C
:1010240003D0DBB2603BADF8063002F00DFC07F0F4
:10103400EBF80028DDD103B05DF804FB43230C4931
:101044000A488DF8053002F0FFFB0A49074802F010
:10105400FBFB0DF10501054802F0F6FBC6E7412351
:10106400EDE74223EBE74423E9E700BF0CA70520A3
:10107400F8EC0020F9EC00202DE9F843FFF74CFFD1
:10108400FFF7B2FF02F0B2FB91B34FF47A72002380
:1010940007F0E2FA224A13689633834226D2214BA0
:1010A400214E1968D6F800C0204BDFF88C906145BA
:1010B4001C681F4F99F800301FD013BB4FF0350840
:1010C400DFF878E03D6808FB05E808F80C304FF0DD
:1010D400350C0CFB04EE4FF0000C0EF801C083F04D
:1010E400010331603C6089F800301060BDE8F8838A
:1010F400104AA2FB00208009CCE73D68A542DCD160
:1011040053B14FF035084FF0020EDFF830C008FB42
:1011140004CC0CF801E0E2E7DFF820E0D7E700BFF9
:101124006CA70520809C05207CA70520849C0520B5
:1011340080A70520D34D6210CEAF05208C1301206B
:101144002DE9F04FA94893B005F0A6FC002840F023
:101154006684A649A648FFF7ABFD00231D461C463E
:10116400A44A8DF8443010924FF40071A2480DAA9D
:1011740005F0D8FDE8B90D99F1B120469E4B012246
:10118400FFF7B4F90D9B1C44C4F30D03002BEBD102
:101194000135A10A9948EDB2FFF78AFD05F0030372
:1011A4006B4493F84000FFF74DFD0D20FFF74AFD17
:1011B400DAE79348FFF7A8FDA10A9248FFF778FD04
:1011C400914805F069FC9049002800F0B5838F48E8
:1011D400FFF79AFDDFF860924FF4C062D9F800700F
:1011E4008B48A7F5C0663146FFF7B6F9FFF718FA42
:1011F4008848FFF75DFDA7F2C44408218648FFF73D
:1012040057FD042220460FA9FFF728FA834B0F9AB3
:101214009A4200F0458482498248FFF749FD804C98
:10122400A7F5A868A8EB040804EB080014F8013B30
:1012340001220FA98DF83C30FFF732FB14F8015C52
:10124400002DF1D1DFF8F4B17748FFF731FDCBF889
:1012540028501EB107F10046A6F5C0664FF00042C3
:10126400DBF8BC30CBF82C6043F00303CBF8BC3084
:101274006E4BCBF880201B68002B00F0D683002334
:10128400059300274FF0FF3A694B3D461B68D04653
:10129400BB420CBF4FF48053012304970693CDF84F
:1012A4001CA008F1010207999542049AA1EB0803D6
:1012B40072EB0303C0F0D782B1F1FF3F08BFB8F16E
:1012C400FF3F40F0CD82594B1B68002B00F0D482C5
:1012D400DBE92201574B1B681A460093DB1707F022
:1012E400BBF9059BC61ADBE92432DBF89C10F31822
:1012F40024BF0132CBF894209142CBF8903080F097
:10130400C782DBF898000143DBF8BC20DBF8AC3083
:1013140040F0DE80DBF8AC3023F08003CBF8AC3057
:10132400DBF8BC305C0700F19C83DBF88070DBF8F1
:1013340088A0069BCDE902585344CDE90036D9F87C
:10134400003007F1004098420AF1010A80F09C83C2
:1013540010F0030540F09E8304220FA9FFF77EF9E5
:101364000F9E06F07F03372B4FEAD612C6F3C41440
:1013740000F27381022B63D9033B342B60D8DFE87E
:1013840013F0F3005F005F005F005F005F005F0029
:101394005F005F005F005F005F00C7005F005F00E9
:1013A4005F007E005F005F005F00EA005F005F0097
:1013B4005F005F005F005F005F005F005F005F0031
:1013C4005F0037015F005F005F005F005F005F0048
:1013D4005F005F005F005F005F0020015F005F004F
:1013E4005F007E005F005F005F001A018CE8002050
:1013F400B4E800202F2D5C7CC4190120D4E800201F
:10140400E8E8002000E9002018E9002020E9002095
:101414001CED002070E9002098E9002003FFC000C3
:1014240004ED0020ACE90020C0E90020FCA2052066
:10143400A8A70520B4F80020ACF8002090050120EE
:101444000322DDE90165DDF80C803946013ACBE978
:101454002D12DBE92130DBF8BC20D1021B0103F0A3
:10146400800301F4C0510B4342F00302CBF8B07087
:10147400CBF88430DBF8A470CBF8BC2053E0002E0A
:101484004FEA1653B8BF6FEA0353C6F3C432B8BF6A
:101494006FEA1353B0065BF8221007F10407C6F392
:1014A400023240F1168203F01F03B0015BF82330CF
:1014B40002F1FF3240F14A82062A00F21387DFE884
:1014C40012F0190428041C041F0408040D04000469
:1014D400DBF8A81043F0800322F00402CBF8AC3010
:1014E4000B06DBF88070DBF888A0CBF8BC207FF516
:1014F40020AFDBF8841008077FF51BAF0B460021F3
:10150400B148CBE92D105046A7E7884200F0D482B9
:101514000437009B9A457FF412AFDDF80C80DBF8AA
:101524008800DDE90165824504D2DBF88C200132B4
:10153400CBF88C20069BCBF888A0CBF88070DB1707
:10154400059A0499B2180592069AAA1841EB030366
:1015540015460493A5E66FF30B06F5190437002C22
:10156400D7D04BF82450D4E7C6F3C433002E5BF82D
:1015740023104FEA1653BCBF6FEA03536FEA1353A9
:101584001944D9F8003001F10040033B9842C0F0FF
:10159400AD8101F17043B3F1007F80F0D1818B4BB9
:1015A4000437994200F0DE82894B994240F033833C
:1015B400DBF89050D3E726F47F6525F00F05043758
:1015C400CDE7C6F3C4335BF82310D9F8003001F13A
:1015D4000040033B9842C0F0CB81DDE9016508225D
:1015E400DDF80C80901F022888BF3946013A2EE7A7
:1015F400320D02F47E621443150544BF6FEA0454AD
:101604006FEA1454C6F3C4335BF82310D9F80020EE
:101614002144033A01F10040C6F3045390425BF8BD
:101624002330C0F0778101F17042B2F1007FD4D24F
:10163400684A0437914200F09282674A914200F06E
:101644001C83664A914200F00D86B1F1805F7FF4FD
:1016540060AFD8B2FFF7F6FA5BE7633B102B3FF6B7
:10166400EFAE102B3FF6ECAE01A151F823F000BF12
:10167400D116002031130020311300203113002033
:10168400991600203113002031130020311300205B
:1016940031130020311300203113002031130020B6
:1016A400691600203113002031130020311300206B
:1016B400A515002016F4405F4FEA1658C6F302330E
:1016C400C6F3013100F0EC80C6F3C436B8F5517F9F
:1016D4005BF8262000F21182B8F5407FC0F0DB826F
:1016E400A8F54071442900F2D682DFE811F0B30373
:1016F4003D04D402D402DF03C903D402D402D402C9
:10170400D402D402D402D402D402D402D402D40225
:10171400D402D402D402D402D402D402D402D40215
:10172400D402D402D402D402D402D402D402D40205
:10173400D402D402D402D402D402D402D402D402F5
:10174400D402D402D402D402D402D402D402D402E5
:10175400D402D402D402D402D402D402D402D402D5
:10176400D402D402D402D402D402D402D402110486
:10177400F50327048A039F0340F2FE72F30A02EA88
:10178400165203F48013134306F47F22760A13439C
:1017940006F400661E43DB0244BF6FEAC6266FEA06
:1017A400D6263D1D3744DAE6330D002EBCBF6FEA62
:1017B40003536FEA1353C6F3C4365BF826203D1D6A
:1017C400134423F00107CAE607000080FCBF0011A0
:1017D400F8BF001104400011004000110000101176
:1017E40002F01E03320D02F4FC610B43310101F4DB
:1017F40000610B43F10F43EA013319B16FEAC343AC
:101804006FEAD34302F01F025BF82210C6F3C4321E
:101814005BF82200C6F302363A1F1A44072E3FF63D
:101824000FAE01A353F826F0FB130020BD190020CE
:101834003113002031130020C3190020A319002004
:10184400AD190020B5190020194647F27773994263
:1018540040F03785DBE92221C448FFF729FA01204B
:1018640013B0BDE8F08F4FF00008C14BCDF81C80D9
:101874001B68002B7FF42CAD01F0B8FFBD4B1B6837
:101884001A460093DB1706F0E7FE059BC61A2AE505
:101894007FF440ADDBF8980083427FF63BAD32E540
:1018A400002B5FD140F20513984500F0C7805FFA22
:1018B40088F3022B00F06A814346DDE90258019E59
:1018C400002B00F0E081012B00F0DA81394602227E
:1018D400BDE5013A062A00F20985DFE812F08C0121
:1018E40076017B018001830170017301C6F3023626
:1018F400052E3FF6A5AD01A353F826F03F1A0020AC
:10190400011A0020111A0020311300201F1A002090
:101914002F1A0020C6F30236012E00F0DE80022EBC
:1019240000F06E81002E00F0E080DDE90165002109
:101934000322DDF80C8055E68F48FFF7B9F949E436
:101944000622DDE90165DDF80C804BE6062A00F28B
:10195400C384DFE812F050013A013F01440147011A
:10196400340137010322DDE90165DDF80C8039E635
:10197400C6F3045304220FA9F60E08905BF82380E3
:10198400FEF76CFE0F9D08981C2E3FF659AD01A37F
:1019940053F826F0551C0020FF180020591C002085
:1019A4000F1C00206F1C0020311300203113002075
:1019B40031130020471C0020311300203113002074
:1019C40031130020851C0020311300203113002026
:1019D40031130020751C0020311300203113002026
:1019E400311300207D1C002031130020311300200E
:1019F40031130020F9180020311300203113002086
:101A0400311300204D1C0020A84528BFA8460422FD
:101A14000FA9CDF83C800437FEF742FF9FE55749F4
:101A24005748FFF771F9FFF794BB01F0DFFE514B04
:101A34001A68D31706F010FE059022E4DBF8843010
:101A4400043743F00803CBF88430DBF8BC30DDF80E
:101A54000C8043F00403CBF88070CBF8BC30DDE994
:101A64000165484B1B68002B40F0D180DBF88830BF
:101A7400069A9B18CBF88830DBF88C3043F10003CE
:101A8400CBF88C30D3175BE50222DDE90165DDF884
:101A94000C80DAE40122DDE90165DDF80C80D4E490
:101AA40033BA204604220FA90F93FEF7F9FEFFF77D
:101AB400B2BB8842FFF62CAD171D2AE58842BFF45D
:101AC40027ADF9E78842FFF423ADF5E78842F3D167
:101AD4001EE58842BFF61CADEEE702220FA9ADF861
:101AE4003C300437FEF7DCFE13E501220FA98DF824
:101AF4003C300437FEF7D4FE0BE5B8F5406F00F038
:101B0400018340F61171884540F019811E4DD0E0E3
:101B140002220FA9FEF7A2FD0437BDF93C501EE5D1
:101B240004220FA9FEF79AFD04370F9D17E5012241
:101B34000FA9FEF793FD04379DF83C500FE50222F0
:101B44000FA9FEF78BFD0437BDF83C5007E50122D1
:101B54000FA9FEF783FD04379DF93C50FFE4CBF851
:101B64009C30D6E4DBF89450F9E400BFD8E90020B7
:101B7400FCA20520B4F800204CE900208CE80020E9
:101B840094E80020B0F80020FFF00FFFDBF8842079
:101B9400DBF8BC101309C80203F0080300F4C050BA
:101BA400C2F3C122034321F003010A4343F080033B
:101BB400DBF8B070CBF8BC20CBF88430A9E441EA60
:101BC4000305CCE401EA0305C9E49942ACBF00254E
:101BD4000125C4E499422CBF00250125BFE481EA14
:101BE4000305BCE403F01F0370004CBF41FA03F586
:101BF40021FA03F5B3E403F01F0301FA03F5AEE49D
:101C040004220FA90F930437FEF74AFE81E4012052
:101C140001F0FAFC2AE7BB4B994200F08D82B1F146
:101C2400805F7FF49CACB8490B68EFF3108272B606
:101C3400D3E8CF6F0120002EFAD1C3E8460F002E5F
:101C4400F6D1BFF35F8F08894B89C01A02D5CB89BF
:101C54000133184400230968C1E88F3F82F31088D8
:101C640000283FF47CACA8480FA901F027FE002807
:101C74007FF462AF4FF0FF3571E4CBF8983048E45D
:101C84000422FFF7E2BBDBF8BC203946930753D0AC
:101C94000B22FFF7DCBBB8F5A07F00F07182B8F52A
:101CA400A87F00F0998240F25511884547D19749A1
:101CB4000D78023B052B3DD8DFE803F0A09A3C7079
:101CC4006F9D002B00F03582B1FBF3F503FB151576
:101CD40045E4002BCED0B1FBF3F540E4002B00F03B
:101CE4002882B1F1004F00F07A8291FBF3F503FBF7
:101CF400151534E483FB011531E4A3FB01152EE42F
:101D0400002BB7D0B1F1004F00F0108291FBF3F536
:101D140025E4A1FB0325C91703FB01551FE4DBF8E8
:101D2400BC3020F06042DB08934214BF012500253B
:101D34003FF46DAE043712E40822FFF788BB023B80
:101D4400052B00F2CE81DFE813F059005300CC01DB
:101D540029002800560048EA050858E6A84538BF77
:101D6400A84654E6A84452E6DBF8BC30043703F036
:101D7400070343EAC003CBF8BC30FFF7F0BB88EAA3
:101D8400050844E6A845A8BFA84640E6A845B8BF4C
:101D9400A8463CE608EA050839E62E43B8F5517F23
:101DA400C8D8B8F5507FC0F0A5816FF4507108EB26
:101DB4000103032B00F23D81DFE803F00F09031553
:101DC4001646CBF8B4600437FFF7C9BB1646CBF808
:101DD400B8600437FFF7C3BB1646CBF8B0600437CE
:101DE400FFF7BDBB1646CBF8AC600437FFF7B7BBB3
:101DF40025EA0206D2E725EA0606CFE742EA050607
:101E0400CCE7023BDBF8B450052BD9D801A151F83B
:101E140023F000BFED1C0020E11C0020B11C0020B9
:101E24008D1C00208B1C0020E71C0020023BDBF8EB
:101E3400AC50052BD6D801A151F823F0ED1C00209D
:101E4400E11C0020D51C00208D1C00208B1C0020D0
:101E5400E71C0020023BDBF88450052B00F2DC80F9
:101E640001A151F823F000BFED1C0020E11C00206B
:101E7400091F00208D1C00208B1C0020E71C002063
:101E8400023BDBF8A450052B00F2D88001A151F8E5
:101E940023F000BFED1C0020E11C00202D1F0020BA
:101EA4008D1C00208B1C0020E71C0020023BDBF86B
:101EB400A850052B00F2B68001A151F823F000BF11
:101EC400ED1C0020E11C0020151F00208D1C0020AB
:101ED4008B1C0020E71C0020023BDBF8B050052BD4
:101EE4003FF67AAF01A151F823F000BFED1C0020AA
:101EF400E11C0020C91C00208D1C00208B1C00202C
:101F0400E71C0020050000100CA70520CBAF05201E
:101F1400023BDBF8A050052B00F28A8001A151F8A6
:101F240023F000BFED1C0020E11C0020211F002035
:101F34008D1C00208B1C0020E71C0020023BDBF8DA
:101F4400B850052B3FF642AF01A151F823F000BF72
:101F5400ED1C0020E11C0020BD1C00208D1C002075
:101F64008B1C0020E71C0020B44D023B052B0FD82E
:101F740001A151F823F000BFED1C0020E11C00205A
:101F8400811E00208D1C00208B1C0020E71C0020DB
:101F940016466FF49C7208EB02031B2B3FF6CAAE85
:101FA40001A252F823F000BFC71F0020251C002007
:101FB400251C0020251C0020251C0020251C002099
:101FC400251C0020251C0020251C0020251C002089
:101FD400251C0020251C0020251C0020251C002079
:101FE400251C0020251C0020251C0020251C002069
:101FF400251C0020251C0020251C0020251C002059
:10200400251C0020251C0020B91F0020A51F00202E
:102014009B1F0020391F00201646CBF8846004372C
:10202400FFF79DBA1646CBF8A8600437FFF797BAB6
:102034001646CBF8A0600437FFF791BA1646CBF8E2
:10204400A4600437FFF78BBA7D4B1B685B0A5A1EEA
:102054000892002B3FF46EAEDFF804827949002E1B
:1020640000F0C5800B950D46CDE909A4764EDDF848
:1020740020A03068754C04220FA9FEF7EFFA0F9BDD
:10208400306844F8043F043044453060F3D14FF4E1
:1020940000716F480FAA04F0AFFEBAF1010A28706C
:1020A400E7D2DDE909A40B9D44E6654B04371E60C5
:1020B400FFF755BA674B30461E6004F035FF61499F
:1020C40004370870FFF74BBA06F100435E4E04373D
:1020D4003360FFF744BAF0B2FEF7B4FD0437FFF7FC
:1020E4003EBAB8F5517F3FF625AE1646B8F5407FA7
:1020F40093D04EE7B8F5417F95D040F2053398452B
:10210400F4D19CE7023B5546052B3FF613AE01A1E3
:1021140051F823F0ED1C0020E11C0020251C0020B8
:10212400251C00208B1C0020E71C00205A1C7FF477
:10213400EDAD0D46FFF713BA47490B68EFF3108076
:1021440072B6D3E8CF5F0122002DFAD1C3E8452F40
:10215400002DF6D1BFF35F8F0B894A899B1A02D5F4
:10216400CA890132134400220968C1E88F2F80F321
:1021740010889B1A18BF012343F06005FFF7EFB9DD
:1021840035490868EFF3108E72B6D0E8CFCF012539
:10219400BCF1000FF9D1C0E84C5FBCF1000FF4D1E1
:1021A400BFF35F8F08894D89401B02D5CD89013566
:1021B40028440D680021C5E88F1F8EF3108898B15C
:1021C40025480FA9CDE9083201F078FBDDE9083292
:1021D40050B19DF83C50C8E620490D6869E55E1C85
:1021E4007FF483ADFFF7BBB94FF0FF35BDE6164E64
:1021F400CDE909A433460C462E461D464FF4007122
:1022040013480EAA04F08EFDDFF840A02070286861
:102214005AF8043F04220FA90F93FEF741FB2868E4
:10222400D04500F104002860F2D1089B013B0893DB
:102234000133E3D1DDE909A435467BE501114040D2
:10224400CC1B0120CBAF0520C81B0120C0190120E5
:10225400C4190120C41B01200CA70520A8F80020E4
:10226400C01B012045F25552DDE901659342DDF8BA
:102274000C80CBF8807016D03FF6E6AA032B1BD156
:10228400059B4FF00008F3180593069BCDF81C80BE
:102294005B191D46049B43F1000304932B433FF455
:1022A40012A8FFF7DDBA1348DBE92221FEF700FD8F
:1022B400002013B0BDE8F08F03D84BB1012B3FF4DD
:1022C400D0AB0D48FEF7F4FC022013B0BDE8F08F4C
:1022D400069BDB17FFF734B9084AB24306D1CD1A7F
:1022E400FFF73DB903FB01F5FFF739B9CD18FFF747
:1022F40036B900BFF0E9002008EA002020000040C1
:1023040010B54D4C204602F02FFB0020227820709F
:1023140000204A4B11099F2A02F00F028CBF37316B
:102324003031092A19708CBF02F1370102F13001F2
:102334006278607000209F2A59704FEA121102F0EF
:102344000F028CBF37313031092A99708CBF02F1EA
:10235400370102F13001A278A07000209F2AD970C1
:102364004FEA121102F00F028CBF37313031092AC3
:1023740019718CBF02F1370102F13001E278E0708B
:1023840000209F2A59714FEA121102F00F028CBFEC
:1023940037313031092A99718CBF02F1370102F1CA
:1023A40030012279207100209F2AD9714FEA12113D
:1023B40002F00F028CBF37313031092A19728CBFF9
:1023C40002F1370102F130016279607100209F2A25
:1023D40059724FEA121102F00F028CBF37313031BB
:1023E400092A99728CBF02F1370102F13001A279F6
:1023F400A07100209F2AD9724FEA121102F00F0235
:102404008CBF37313031092A19738CBF02F137017F
:1024140002F13001E27959739F2A4FEA121102F056
:102424000F028CBF37313031092A94BF3032373232
:102434009973E071DA7310BD60AE052068AE0520B3
:10244400004870476CF300200048704720F30020D8
:1024540038B50446FFF754FF4CB9174B174D1A68AB
:102464004FF4417312886A8014482B8038BD032CC2
:102474001FD8114B114D53F82440204607F02EFA73
:10248400C0B21F28844628BF4FF01F0C50B1002350
:102494002A46601E013310F8011FDBB29C4522F866
:1024A400021FF7D80CF10103DBB25B0043F4407365
:1024B400DAE7002038BD00BFB8F80020F811012089
:1024C4004FF050422DE9F84F6D4BD2F800A053F86D
:1024D4002A70BAF1000F2CD0DFF8B0816FB3002658
:1024E400DFF8A0B1DFF8A091F3080C3358F82350BB
:1024F40034460836CDB105F00F0120462D090134CC
:1025040089B15BF82A2000F00703C2404FEAD00CDF
:102514009B00D20701FA03F30CF18C0C02D449F8A6
:102524002C30B8470DB1B442E5D3202EDCD1BDE840
:10253400F88FDFF85C81002FD1D15248F90801F1FE
:102544000C0358F82330002B7BD013F00F054FEA0F
:1025540013120AD050F82A40FC40E60703D44A4C30
:102564008C3144F82150002A6BD012F00F024FEA4C
:1025740013210DD050F82A407D1CEC40E40705D40B
:10258400EC08414D12018C3445F82420002958D020
:1025940011F00F014FEA133207D050F82A40BD1C46
:1025A400EC40E60757D5002A4BD012F00F024FEA51
:1025B400134107D050F82A40FD1CEC40E40751D5E4
:1025C40000293ED011F00F014FEA135207D02D4CD1
:1025D40054F82A503C1DE540EE074AD58AB312F060
:1025E4000F024FEA13610DD0264C54F82A507C1D7B
:1025F400E540ED0705D4244DE40812058C3445F874
:102604002420F1B111F00F014FEA13731FD01D4CB8
:10261400BD1D54F82A20EA40D60705D4EA081A4D0D
:1026240009068C3245F822105BB154F82A10FA1DC1
:10263400D140C90705D41449D2081B078C3241F88C
:1026440022300837202F7FF479AFBDE8F88F002BB4
:10265400F7D00C4CE9E7EC080B4D09028C3445F833
:102664002410A0E7EC08084D12038C3445F824200C
:10267400A6E7054DE40809048C3445F82410ADE7B9
:10268400009C052084A7052000800240908202401F
:102694004882024010B44FF480740C4B53F820204D
:1026A40003EB8003C00082F0400200F1804003F598
:1026B400805C02F0C00200F5203003F54053CCF8F2
:1026C400002041601C605DF8044B704704800340A7
:1026D40010B4084CC90041EA820154F8202004EBEC
:1026E4008003514003F5805301F00C015DF8044B65
:1026F4001960704704800340054B53F8202003EB16
:102704008003514001F0010103F5805319607047C3
:10271400048003402DE9F0434FF050491F46DFF891
:102724009880D9F80030164658F8232004460D4600
:1027340083B032B387B348F823704FF050431B681B
:10274400BBB1194BE10804F00704184AA40005FAC8
:1027540004F403EB81038C3142F821405EB1012182
:10276400152003F500531C6003B0BDE8F04300F0EE
:1027740039B90F4BE6E703F540531C6003B0BDE8DD
:10278400F083002FDCD015200A4948F8237000F0AC
:102794007FF9D9F80030D3E715200649019300F0FA
:1027A4006BFA019BC7E700BF9082024000800240A1
:1027B40048820240B1230020009C052030B44FF031
:1027C400000343EC440043EC400005254FF48074BF
:1027D4000B4BC20053F8201003EB800081F0400142
:1027E40002F1804303F5203301F0C00200F580516B
:1027F40000F540500A605D60046030BC704700BF63
:10280400048003400FB400B583B0049C074801F072
:10281400D1FF3CB105A92046019101F057FE0448BF
:1028240001F0C8FF012001F069FE00BF38EA002072
:1028340048EA0020EFF3108072B6064BD3E8CF1FAE
:1028440001220029FAD1C3E8412F0029F6D1BFF3B0
:102854005F8F7047431201200023034AC2E88F3F71
:1028640080F31088704700BF4312012070B586467C
:10287400EFF3108572B6124CD4E8CF6F0120002E0E
:10288400FAD1C4E8460F002EF6D1BFF35F8F4FF0A4
:10289400010CC80801F007030CFA03F31EF800C08A
:1028A4001CEA030608D14CEA030C0EF800C0C4E885
:1028B4008F6F85F3108870BD1046FFF7A3FF00BF2C
:1028C40043120120F8B5EFF3108772B61C4ED6E818
:1028D400CF5F0124002DFAD1C6E8454F002DF6D173
:1028E400BFF35F8F9A421BD8012502E00132934265
:1028F40022D3D40810F804E002F0070C05FA0CFC0B
:102904001EEA0C0FF2D14EEA0C0E00F804E0104659
:102914000023C6E88F3F87F31088984207DBF8BD91
:102924000023C6E88F3F87F310884FF0FF3000295B
:10293400F5D00698FFF766FF4FF0FF30E8E700BFD9
:1029440043120120044A1078431CDBB2182B28BF21
:1029540010231370704700BFC8F8002010B5054C51
:1029640082B001461F23182200940348FFF7AAFFF0
:1029740002B010BD4CEA0020489C05204FF0E02234
:10298400936843F000539360704700BF0021044BE9
:1029940003F12002C3E88F1F01339342FAD1704739
:1029A400381201204FF0E0234FF08032C3F80024A6
:1029B400C3F80424C3F80824C3F80C24C3F810246F
:1029C400C3F81424C3F81824C3F81C24C3F820241F
:1029D400C3F82424C3F82824C3F82C24C3F83024CF
:1029E400704700BF012300F01F029340400941B12A
:1029F400800000F1604000F56140C0F88031036060
:102A04007047024A203042F82030704700E100E06D
:102A14000123064A410952F8212000F01F0003FA5D
:102A240000F01040003818BF0120704700E100E0BA
:102A3400F8B50D46EFF3108772B6124ED6E8CF2FD5
:102A44000123002AFAD1C6E8423F002AF6D1BFF397
:102A54005F8F0D4B00F110049B680C4A53F824302F
:102A6400934203D0994201D001F098FA064B9B6837
:102A740043F82450BFF35F8F0023C6E88F3F87F3EA
:102A84001088F8BD4112012000ED00E01D01001086
:102A94002DE9F04F81468B46164683B0EFF3108341
:102AA40072B6DFF8D0A10093DAE8CF1F0123002922
:102AB400FAD1CAE8413F0029F6D1BFF35F8F664BD4
:102AC40093F90040002CC0F2A080644D04EB44074D
:102AD40005EB870898F8061009F110091970604B86
:102AE400BF009B6853F829006300411B2F292FD98D
:102AF4005C49884240F0A4801C445B4B02372F445D
:102B0400043BDB1BC3F34A036FEAC3434FF4214185
:102B14006FEAD34325F8241005EB840463804BF655
:102B24000153A380FF2348F00100E671C4F808B004
:102B3400A3714B4B9B6843F82900BFF35F8F0023BD
:102B4400CAE88F3F009B83F3108803B0BDE8F08F81
:102B540020F0010E9EF80710B1422ED84FF4214305
:102B6400EB53414BB91C2944043B04375B1A2F44F3
:102B7400AEF10401C91BC1F34A043C49C3F34A033F
:102B84000B432143A8F804103949A8F802304AF647
:102B9400AA2073465B1B5B415843000D88F807600D
:102BA40088F80600C8F808B048F00100CEF8001014
:102BB400BFE7D179B1422ED996469EF906C00CEBF7
:102BC4004C02BCF1000F05EB8202F2DA4BF6015124
:102BD4000EF10402A8F10407BF1AC7F34A076FEA0B
:102BE400C7476FEAD7478EF8064003EB0408204C2A
:102BF40005EB8803AEF8047045F82840998083F803
:102C040006C0DE71C3F808B093E701F0C7F9124BB0
:102C140093F9004059E7724632F8041F490514D469
:102C24004915023102EB410101916FF00701C91B03
:102C3400019F491B3944C1F34A0141F46041C9E78A
:102C4400019301F0ABF9019B56E701F5FF1101F582
:102C5400FF511F31E4E700BFD1AF0520CCF80020BD
:102C640000ED00E01D010010FCF8002000E0FFFF73
:102C740001488047411201202DE9F04F83B0EFF362
:102C8400108A72B6714ED6E8CF2F0123002AFAD1EA
:102C9400C6E8423F002AF6D1BFF35F8F6C4B00F1C8
:102CA40010089B686B4A53F82850954245D08D42D2
:102CB4000C4650D0684FEB1B2F2B3ED801214FEA16
:102CC40050194FEA890909F1604909F5614900F091
:102CD4001F0301FA03F0D9F80030C9F8800000EAB4
:102CE400030BBFF35F8FEFF30581C9B2002934D022
:102CF400884505D0CDE9001001F050F9DDE9001058
:102D040025F0010EDEF808C0644505D189E0D3F84A
:102D140008C0644531D09E469EF9062002EB42036A
:102D2400002A07EB8303F2DA644561D0BBF1000F9C
:102D340020D0C9F88001C9F80000454B9B6843F8CE
:102D44002850BFF35F8F0023C6E88F3F8AF31088B3
:102D540003B0BDE8F08F1546EFE725F0010EDEF86D
:102D640008C06445D8D19EF906407346002C08DAA1
:102D7400154646E0C9F88000DFE793F90640002CC9
:102D840037DB04EB440C07EB8C0C9CF80710DCF8E5
:102D94000820D9719A609CF906206100002A9A7172
:102DA4003DDBBCF804E05FEA4E5E05D50EF5FF1E80
:102DB4000EF5FF5E0EF11F0E6FF0070C0A194FEAB5
:102DC4006E5E920002EB4E0208323A44ACEB030C06
:102DD4006244C2F34A026FEAC2426FEAD2429A8064
:102DE4001E4B21441A7807EB81011C708A719DE700
:102DF4007346D9B9FF228EF806204BF60152AEF87D
:102E04000420164C4AF6AA2294F800C01946C91B9D
:102E140049414A43120D83F806C0227086E7104ADE
:102E2400DDE79EF906407346002CAADA0D4A0E4CE3
:102E3400D21A083AC2F30A316FEA01516FEA11510A
:102E440044EA5202DA80998070E700BF41120120FF
:102E540000ED00E01D010010CCF80020D1AF0520EA
:102E640001BDFFFF06F9002000F8FFFFF0B5EFF306
:102E74000585EDB2EFF3108C72B62649D1E8CF2F59
:102E84000123002AFAD1C1E8423F002AF6D1BFF358
:102E94005F8F214E40F0010EB4684AF6AA2354F81D
:102EA40025701E4A0446A41A644163431B0D7745EA
:102EB4005BB21BD092F906409C421CD092F912409E
:102EC4009C4223D092F91E409C4221D092F92A4080
:102ED4009C4208BF03240FD0114A002415781370B4
:102EE4008571C1E88F4F8CF31088F0BDB2680D4C2A
:102EF40042F82540F0E7002404EB440402EB84028A
:102F0400FF2494714BF601549480E5E70124F3E720
:102F14000224F1E74112012000ED00E0CCF800208A
:102F2400D1AF05201D010010014B0B440360704715
:102F34003812012070B5104C104DAC420ED2FF2651
:102F4400236863B1FFF7FEFC01462046FFF7ECFF60
:102F5400A680BFF35F8F0834AC42F1D370BDFFF796
:102F6400F1FC01462046FFF7DFFF2671BFF35F8FB8
:102F74000834AC42E4D370BD34050120440501207B
:102F840010B50446FFF7DEFC01462046FFF7CCFFF0
:102F9400FF232371BFF35F8F10BD00BF10B504463C
:102FA4000120FFF7DBFC034B03442360BFF35F8F77
:102FB40010BD00BF381201200D4B1A68EFF31081C9
:102FC40072B6D2E8CFCF0120BCF1000FF9D1C2E82C
:102FD4004C0FBCF1000FF4D1BFF35F8F00221B68CC
:102FE400C3E88F2F81F3108840BF00200021704771
:102FF400ACA70520000000002DE9F04F2DED028B59
:1030040085B0EFF30583DBB2103B9A0818BF0122A9
:103014004FF0010103F0030B18BFAF4DAF4B08BFD6
:10302400AF4D0BEB820253F8226001FA0BF205F567
:1030340041539FEDA78B01925A602FE0B3881C0483
:1030440040F19380B379002B40F0DD80B6F908207D
:10305400002AC0F21E81736902EB420203EBC20331
:10306400D3E90247B7F1FF3F08BFB4F1FF3F0ED0E9
:1030740005EB8B01AB6A0A69D21AE31A934205D3B2
:1030840001232A6A03FA0BF3134200D10C61284688
:1030940000F0A4FBA042B941C0F2FB80B6F90830AD
:1030A400019A002B0093EA63C8DBD6F8148003EB83
:1030B4004309284608EBC907D7E9024A00F08EFB0A
:1030C400A04271EB0A01B9DBBAF1000FC0F2C38070
:1030D400D7E90431834A934200F0ED807A88B6F947
:1030E400080092B242EA0040984702460B4652EA70
:1030F400030100F0B080002B80F2D180B4EB020E0B
:103104006AEB030A38F93930C7E902EA002B95DB88
:10311400716903EB430201EBC202D2E90270BE45BE
:103124007AEB000C4FEA430288DBB4462CF8083FE4
:1031340006E003EB430001EBC0005A00D0E9027043
:10314400BE451A447AEB000001EBC20404DB31F9FA
:103154003230A446002BECDA28F83930009BACF866
:103164000030B3881C043FF56DAF3369EFF3108270
:1031740072B6D3E8CF0F01210028FAD1C3E8401F6B
:103184000028F6D1BFF35F8F4FF6FF74B088002399
:10319400316900B2B480C1E88F3F82F3108898424D
:1031A400FFF650AF0746A946746906F1080807EB15
:1031B400470E04EBCE03D3E90250B6F90830C446F7
:1031C400002B13DBB246009704E034F93630944602
:1031D400002B09DB03EB430604EBC602D2E90271C0
:1031E400BD4270EB0101F0DA5646009FACF8007066
:1031F40034F93E7024F83E30002FD8DAB3794D46C6
:10320400002B3FF423AF0023B371B6F9083006F165
:103214000808581C3DD01A46776903E08046591CBB
:103224003FF416AF03EB430107EBC100B0F802C053
:103234001C461CF4004F9E4637F93130EED09442C0
:1032440080ED028B05D0A8F80030328927F83120B0
:1032540034817246E3E738F8393033813369EFF368
:10326400108272B6D3E8CF0F01210028FAD1C3E847
:10327400401F0028F6D1BFF35F8F7388316928F8A7
:103284003930009B73800023C1E88F3F82F310889C
:10329400D4E640BF05B0BDEC028BBDE8F08F2846F4
:1032A400CDE9022300F09AFA029A039B10EB020E76
:1032B40043EB010A26E708460B6902919847002868
:1032C400C9D00299D1E9002311E700BFAFF3008010
:1032D400FFFFFFFFFFFFFFFF00800B404CA705200F
:1032E40000000B40E92E00202DE9F84F364C2569EB
:1032F4002DB1BDE8F84F0A213448FFF715BEDFF8B9
:10330400E4800321404600F057FA0326C4F80C80F9
:10331400FFF718FB4FF0504C2D4B267003442361EC
:10332400DCF800300F216370636961801D834FF006
:103334000405A3F878504FF00505A3F890504FF01A
:103344000605A3F8A8504FF007050E214FF6FF72AB
:1033540008274FF00A0EA3F8C0504FF001094FF0B0
:103364000C0C4FF0020B4FF0090A0D204FF00B0527
:10337400A3F868111749A280A3F808E1A160A3F893
:1033840048B0A3F8F0A0A3F82051A3F838C1A3F8DB
:103394005001A3F83090A3F86060A3F8D8701A80A5
:1033A4000D4B3046C8F820700C49DC60FFF740FB39
:1033B40049463046FFF716FB094B0A211F640348B0
:1033C400BDE8F84FFFF7B0BD14F90020ACA7052005
:1033D40038120120FFFF10004CA70520E92E002021
:1033E40000200B4000000B400146F0B50069EFF3EC
:1033F400108772B6D0E8CF5F0124002DFAD1C0E85F
:10340400454F002DF6D1BFF35F8FB1F902E04C694F
:103414000EEB4E0CBEF1000F4FEACC05086904EB2D
:10342400CC0C3CDB665B4E800026C0E88F6F87F3D4
:103434001088BCF80200CCE902230130C0F30E006E
:10344400012838BF0120059BACF80200CCF81030ED
:10345400069B40EA0E40CCF814300B69EFF310825F
:1034640072B6D3E8CFCF0127BCF1000FF9D1C3E87E
:103474004C7FBCF1000FF4D1BFF35F8F8B88635393
:10348400A1F804E00B69C3E88F6F82F3108801226E
:10349400CB68097803F501538A405A60F0BD0023D4
:1034A400C0E88F3F87F310884FF0FF30F0BD00BFB6
:1034B40003464089B0EB214F37DD58690A1402EB0B
:1034C400420210B500EBC2001C69EFF3108C72B617
:1034D400D4E8CFEF0122BEF1000FF9D1C4E84E2F9A
:1034E400BEF1000FF4D1BFF35F8F428889B292B26C
:1034F4008A4207D000221B69C3E88F2F8CF31088FF
:10350400002010BD42F400424280012100221869CB
:103514009971C0E88F2F8CF310881C78DA680846FC
:1035240002F50153A140596010BD0020704700BF4F
:103534002DE9F04182B004460E4600F057F94FF0F1
:10354400FF326FF00043241846EB0106A24273EBEE
:1035540006013CBF14461E46A51F46F1FF37AC4288
:1035640076EB07033CBF00252F4600F03FF9281AED
:1035740067EB010C01287CF1000C06DA2046314689
:1035840002B0BDE8F04100F03BB900F02FF98542EC
:1035940067EB010100290ADB0021174B2A4600933F
:1035A40016483B460191FFF71FFF0130E6D04FF06C
:1035B400000C134A1349536A9F4204D8906AA842E4
:1035C400DCD29F42DAD10B68EFF3108072B6D3E8F5
:1035D400CF8F5FF0010EB8F1000FF8D1C3E848EFC8
:1035E400B8F1000FF3D1BFF35F8F0B68C3E88FCF3F
:1035F40080F3108820BFDEE7A92E002014F90020F4
:1036040000000B40ACA705202DE9F04182B006462E
:1036140000F0ECF84FF47A7304464FF0FF306FF08B
:103624000042E6FB0341A04272EB01033ABF0446A9
:1036340015460D46A61F45F1FF37B44275EB070347
:103644003CBF0026374600F0D1F8301A67EB010181
:10365400012871F1000106DA2046294602B0BDE8CE
:10366400F04100F0CDB800F0C1F8864267EB0101EB
:1036740000290ADB0021174B3246009316483B46CB
:103684000191FFF7B1FE0130E6D04FF0000C134A70
:103694001349536A9F4204D8906AB042DCD29F42D5
:1036A400DAD10B68EFF3108072B6D3E8CF8F5FF0F6
:1036B400010EB8F1000FF8D1C3E848EFB8F1000FDC
:1036C400F3D1BFF35F8F0B68C3E88FCF80F310880B
:1036D40020BFDEE7A92E002014F9002000000B40D3
:1036E400ACA705202DE9F04306460D4683B0EFF361
:1036F4000584E4B23CB12D4B5A6AAA421CD2002084
:1037040003B0BDE8F0832A4FD7F80C9097F80080F7
:10371400484600F063F808F1040859F828301B1AE9
:10372400301A65EB0101984271F1000110DB20BFF2
:103734001E4B5A6AAA42E2D314BF012400249B6A96
:10374400B34234BF204644F0010003B0BDE8F08327
:1037540000F04CF8864265EB0101002914DB154B9F
:103764003846CDE9003432462B46FFF73DFE011EB4
:103774000ADD0E4B5A6AAA4216D39B6AB34211D38E
:103784000B48FFF795FEB6E7084B5C6AAC42B6D32C
:10379400641B18BF01249B6AB34234BF204644F023
:1037A4000100ADE7AA42EBD120BFE9E700000B40DE
:1037B40014F90020A92E002010B4054B054C064A2C
:1037C400A04214BF1846581C5DF8044BFFF74EB8CE
:1037D4004C9C052000800B4068EA00200346416AA7
:1037E4000A46986A596A8A42FAD17047034B596A61
:1037F4000A46986A596A9142FAD1704700000B4010
:10380400074A536A9942FCD8994207D1044B02E013
:103814005A6A914202D19A6A9042F9D8704700BF1D
:1038240000000B4070B516460D4619460446FFF7D6
:103834007BFB2946701C00F001FE0023E6816060DA
:10384400A581A36070BD00BF38B504460368EFF3DB
:10385400108572B6D3E8CF0F01220028FAD1C3E84D
:10386400402F0028F6D1BFF35F8F20896389E28956
:10387400C31A44BF02F1010C6344934206D10020F1
:103884002368C3E88F0F85F3108838BDA289636865
:1038940002FB003005F0ACFF00222389E1890133EB
:1038A4009BB2994238BF134621682381C1E88F2F08
:1038B40085F3108840BF012038BD00BF38B50446E9
:1038C4000368EFF3108572B6D3E8CF0F0122002806
:1038D400FAD1C3E8402F0028F6D1BFF35F8FB4F8C4
:1038E4000AC02389B3EB0C0006D448B92368C3E8A3
:1038F4008F0F85F3108838BDE38901331844F4E74A
:1039040041B10846A289616802FB0C1105F070FF01
:10391400B4F80AC0E3890CF1010C1FFA8CFC63456E
:1039240038BF4FF0000C22680023A4F80AC0C2E894
:103934008F3F85F3108840BF012038BD38B54FF064
:10394400000E044607E063451FD12368C3E88FEFE8
:1039540085F3108820BF2368EFF3108572B6D3E88F
:10396400CF0F01220028FAD1C3E8402F0028F6D156
:10397400BFF35F8F20896389B4F80EC0C31A0CF1BA
:1039840001021A44DFD56245DFD0A289636802FBD5
:10399400003005F02DFF00222389E18901339BB219
:1039A400994238BF134621682381C1E88F2F85F3DC
:1039B400108840BF38BD00BF38B504464FF0000E34
:1039C400084606E021D12368C3E88FEF85F3108809
:1039D40020BF2368EFF3108572B6D3E8CFCF01225E
:1039E400BCF1000FF9D1C3E84C2FBCF1000FF4D1A6
:1039F400BFF35F8FB4F80AC02389A3EB0C03002B39
:103A0400E0DAE2890132DA42DDD038B1A2896168B4
:103A140002FB0C1105F0ECFEB4F80AC0E3890CF1CA
:103A2400010C1FFA8CFC634538BF4FF0000C226870
:103A34000023A4F80AC0C2E88F3F85F3108840BF72
:103A440038BD00BF38B504464FF0000E084606E006
:103A540021D12368C3E88FEF85F3108820BF236842
:103A6400EFF3108572B6D3E8CFCF0122BCF1000F7B
:103A7400F9D1C3E84C2FBCF1000FF4D1BFF35F8F31
:103A8400B4F80AC02389A3EB0C03002BE0DAE28923
:103A94000132DA42DDD028B1A289616802FB0C113F
:103AA40005F0A6FE00232268C2E88F3F85F3108844
:103AB40040BF38BD2DE9F047089C9C4272D80646A9
:103AC4004FEA13491D040F46002390462846224618
:103AD400494604F0C1FD06EB4604A40004F1804409
:103AE40082460B4604F58034002936D128464946DF
:103AF400524604F0B1FD6368311F9A45C9B288BFCC
:103B0400C4F804A00129D14605462ED94FF400601B
:103B1400264A04F54053186052F8260038B1536918
:103B2400B3FBF0F3013303EB4303033BFDD2236800
:103B340004F5805083EA481303F0E003012903608D
:103B440025D942F826504FF4006204F500531A6058
:103B54000120C4F80490BDE8F087311FC9B20129DF
:103B64004D4663684FF00009D0D8012FCED103220F
:103B740004F540531A60A368DB07FCD5236804F5F9
:103B8400805083EA481303F0E003084A03600121EC
:103B94002368B9407B4003F003030360A3680B422E
:103BA400FCD0CEE70020BDE8F08700BF589C05207C
:103BB40000EB400C4FEA8C0C0CF1804C0CF5803C73
:103BC400F0B51646DCF80420051FB2F5803F38BF77
:103BD4004FF48032EDB238BFCCF80420012D2AD93D
:103BE4004FF40067254C0CF54052176054F8202020
:103BF400B2B9DCF80020012D82EA461202F0E0029C
:103C04000CF5805632602AD94FF4006144F8203014
:103C14004FF480330CF500521160CCF80430F0BD41
:103C24006769B7FBF2FE0EF1010E0EEB4E0EBEF10C
:103C3400030EFCD2DDE70129D2D103240CF5405256
:103C44001460DCF80820D207FBD5DCF800200B4C0C
:103C540082EA461202F0E0020CF58056326001223C
:103C6400DCF800504D4005F00305356002FA01F11F
:103C7400DCF808200A42FBD0C6E700BF589C0520A8
:103C8400014B53F820007047589C05202DE9F04F54
:103C94004FF4A078994685B0CDE902125F4CDFF865
:103CA40084A154450AD908F1FF38A4F53B54B8F16E
:103CB4000F0FA4F12004F4D1002069E0072304F5D8
:103CC4003722019403FB03F402F5D872B2FBF4FE2D
:103CD40070454FF0010C4FF002074FF003064FF010
:103CE40004054FF005013FD0B3F1010E00F09480BC
:103CF4000EFB03F4B2FBF4FB58454CD019B301FBA3
:103D040003F4B2FBF4FB58454FD0E5B105FB03F4D3
:103D1400B2FBF4FB584553D0AEB106FB03F4B2FB3F
:103D2400F4FB584557D077B107FB03F4B2FBF4FB1F
:103D340058455BD0BCF1000F05D00CFB03F4B2FB7B
:103D4400F4FB83455DD0734603FB03F4B2FBF4FE3E
:103D5400704501F1FF3105F1FF3506F1FF3607F13A
:103D6400FF370CF1FF3CBFD104FB1024002CBBD166
:103D74009E464A46DDF808B0DDF80C90012028493B
:103D840001FB08F1CBF80010C9F80030C2F800E0DC
:103D940005B0BDE8F08F04FB1024002CAED14A46D8
:103DA400DDF808B0DDF80C90E8E704FB1024002CE3
:103DB400ABD14A468E46DDF808B0DDF80C90DDE75D
:103DC40004FB1024002CA7D14A46AE46DDF808B007
:103DD400DDF80C90D2E704FB1024002CA3D14A4652
:103DE400B646DDF808B0DDF80C90C7E704FB1024F4
:103DF400002C9FD14A46BE46DDF808B0DDF80C9091
:103E0400BCE704FB1024002C9DD14A46E646DDF8AD
:103E140008B0DDF80C90B1E7019C44E750262F0070
:103E2400001BB70050F80C0070B4039D04682D0308
:103E340045EA03451B4B002CB3FBF1F3B2FBF3F64D
:103E44001FDB194A194B904214BF4FF480424FF4C0
:103E54000042174C1A6003F580531A60A36832EAD3
:103E64000303FBD1212200F5405304330160866033
:103E74001A600268002AFCDA0822C5601A6070BC65
:103E84007047036803F03F038B42DAD18368C3F3BE
:103E94000B03B342D5D1C36803F4EE23AB42D0D1B4
:103EA400EDE700BF001BB700008005400020024082
:103EB400000002400A4B0B490B4A5960D3681904AD
:103EC400FCD40A4BD26843EA001309495340094819
:103ED4001940054AC160D3681B04FCD4704700BF75
:103EE400002010400020FE5A000010400000FE5A3E
:103EF400F001FE5A00101040014B024A5A6070470C
:103F0400002010400001FE5A012300EB4000800015
:103F140000F1804000F5841041600360704700BFE9
:103F24000023DB8A002242E800F2520201D410216D
:103F340018470421184700BF034AD2F82838002B39
:103F4400FBD0BFF35F8F704700000E400021044B8D
:103F5400044ABFF35F8F43F8041B9342F9D17047BF
:103F64000C080E402C080E4010B44FF48D704FF422
:103F74002A64064A064B07491460D06019605368E6
:103F8400002BFCDA5DF8044B704700BF008004404E
:103F940000A0044000B0FA00704700BF08B5014813
:103FA400FEF730FC8CEA002038B5054C054DAC42D8
:103FB40004D254F8043B9847AC42FAD338BD00BF4E
:103FC400440501208405012038B5054C054DAC425B
:103FD40004D254F8043B9847AC42FAD338BD00BF2E
:103FE400700501208405012010B40748074C084BD4
:103FF400084A094904601A608B6832EA0303FBD15A
:104004005DF8044B704700BF002002407F3BEFEF98
:1040140000300240F6FFF30300000240044BDB6C67
:10402400B3F5004F03D14FF48022024BDA6470479A
:1040340000001150002011504FF0E022044BD2F840
:10404400881D0B43C2F8883D10EE3004704700BF52
:10405400030330006FF06041044B054A1960936814
:10406400DB4333F06043FAD1704700BF00300240B5
:104074000000024010B545F25320FFF751FFBDE8A0
:10408400104003460420184710B545F25320FFF7AB
:1040940047FFBDE81040034601201847FEF776BCF1
:1040A40010B5054B054C4FF488721846A16805F00D
:1040B4009FFBA06010BD00BF0000002000ED00E0E9
:1040C400002370B52B4C82B0C4F88430FFF74CFF4A
:1040D4000122294BDA63636C012BFCD10321264AAC
:1040E400244B11639C6B012CFCD10226052521462F
:1040F4000523224A22480096FFF796FE21462B46C6
:10410400204A21480095FFF78FFE00220420314603
:104114001E4BFFF74DFD2146284600221C4BFFF79E
:1041240047FD0022082011461A4BFFF741FD0022EB
:1041340009201146174BFFF73BFD002206201146CC
:10414400134BFFF735FD0022114B07201146FFF7F3
:104154002FFD0420FFF794FD00240F4BA3FB003533
:10416400AD0CE0B229460134FFF7CEFE062CF8D19F
:1041740002B070BD0000014000300140002F6859BA
:1041840000000540008C864700800540001BB700F6
:1041940080D1F008006CDC0283DE1B4386B003B4DC
:1041A40051FC0804CDE9020151FC0904CDE90401E4
:1041B40051EC0A04CDE9060103BCF047BDE8005008
:1041C4004EEC00C4BDE800504EEC01C4BDE8005004
:1041D4004EEC02C400BD000000B5FFF7DFFF02E0B3
:1041E40010FE30F4F8D441EC100443EC112400EE3A
:1041F400010410EE010480EE200451EC1004704719
:1042040000B5FFF7CBFF02E010FE30F4F8D441EC28
:10421400100443EC112400EE010410EE210480EE9E
:10422400200451EC3004704700B5FFF7B7FF02E0FB
:1042340010FE30F4F8D410B541EC100443EC112412
:1042440051EC040453EC0524A0FB024C5FF0000E77
:10425400E0FB03CEE1FB02CE4CEC20440024E1FB66
:1042640003E444EC30E480EE200451EC5004BDE857
:104274001040704700B5FFF791FF02E010FE30F4E4
:10428400F8D441EC100443EC112451EC2104A0FBBC
:1042940001126FEA820252FB100052FB12F252FB2F
:1042A4001000A0EBD07C53EC04245CFB13F153EC22
:1042B4001524A1FB022001FB030053EC4424A2EBD0
:1042C400000050FB1CF24FEA111312EB017043EB98
:1042D400E27140EA515020EA915020F0070053EC7B
:1042E4007524A0FB023C53EC752400FB03CC01FBBA
:1042F40002CC53EC0424ACEB824C40EA5C70A0F199
:10430400010041EC400480EE200451EC700470473D
:1043140000B5FFF743FF02E010FE30F4F8D440ECA0
:10432400700400EE010410EE210480EE200451EC30
:104334003004704700B5FFF731FF02E010FE30F49F
:10434400F8D440EC600400EE010410EE210480EE89
:10435400200451EC3004704700B5FFF71FFF02E062
:1043640010FE30F4F8D441EC800400EE010410EEA9
:10437400010480EE400410EE1304704700B5FFF70B
:104384000DFF02E010FE30F4F8D441EC100443ECCD
:10439400112400EE010410EE3004C0F300707047E5
:1043A40000B5FFF7FBFE02E010FE30F4F8D441EC58
:1043B400100443EC112400EE010410EE3004C0F3A9
:1043C4008070704700B5FFF7E9FE02E010FE30F49C
:1043D400F8D443EC102441EC110400EE010410EE77
:1043E40030F48CBF01200020704700BF00B5FFF7F8
:1043F400D5FE02E010FE30F4F8D443EC102441EC76
:10440400110400EE010410EE30F42CBF0120002052
:10441400704700BF00B5FFF7C1FE02E010FE30F4A4
:10442400F8D441EC100443EC112400EE010410EE26
:1044340030F48CBF01200020704700BF70B50446E3
:104444000E460B4809F034FB3146204604F0C8FA06
:104454000546074809F0F2FB06FB04F42DB1054BB1
:104464002C449C4201D8284670BD0348FEF7CAF983
:10447400340501200000082098EA002000B97047A4
:1044840000F056B90FB410B50E4B84B006A91C68E1
:1044940051F8043B03915CB100914FF0FF3202A943
:1044A4000948A047012004B0BDE8104004B070479B
:1044B400184600F07FF9204604B0BDE8104004B06F
:1044C400704700BF1CA705206D43002010B5094BA1
:1044D40084B01C684CB1034600914FF0FF3203A92D
:1044E4000548A047012004B010BD00F063F9204640
:1044F40004B010BD1CA705206D43002000BEFDE7DD
:10450400074A0346106838B1064903448B428CBFFE
:104514004FF0FF3013607047034908461160F3E71A
:1045240004A3052000000820D4AF052008B5FFF738
:10453400E5FF00BF9C46144600B50B4602466146A3
:1045440083B044B1054D064801940095FFF79AFFE6
:104554000120FFF7D3FF034D2C46F4E7D4EA0020F3
:10456400E4EA002048E9002038B5064C064DFFF780
:104574001BFDAC4204D254F8043B9847AC42FAD336
:1045840038BD00BF840501208C050120036808465E
:10459400114618472DE9F0411546427D07468846E5
:1045A400002A46D0002D1DDD0B780A2B23D0012DC7
:1045B4004FF0000C18D04646012416F8012F21466E
:1045C4000A2A04F1010422D0A542F6D165450BDC88
:1045D40008EB050313F8013CA3F10D03B3FA83F3CD
:1045E4005B093B75BDE8F0813B68A5EB0C0108EB6A
:1045F4000C009847ECE7037D002BD8D10368022117
:104604000F489847012DE3D04FF0010CD3E716F87B
:10461400013C0D2BD8D08C4508EB0C00A1EB0C0110
:1046240001DA3B689847022105483B689847A4464D
:10463400CAE7294640463B68BDE8F041184700BF39
:10464400D4F300202DE9F04782B00D4691461C4674
:104654000646FFF7CBF84FF0FF3C6FF000472E4AB9
:10466400821841F10003944577EB03013CBF624695
:104674003B462A4809F092FA6B1C804640D00CB3A2
:10468400274F284B1C68B4B1B9F1000F1CD1DFF8D7
:104694009C9001E0246974B12368002BFAD0D9F806
:1046A40000300BB19C42F5D120462A463146B8472A
:1046B4002469002CF0D1B8F1000F26D1284602B0AD
:1046C400BDE8F087184FDCE74FF00A0ADFF85C908A
:1046D40002E02469002CEED02368002BF9D0D9F82D
:1046E40000300BB1A342F4D12A4631462046B847E4
:1046F400012220460DF107018DF807A0B847E8E72D
:10470400304605F0EBF80546B9E7044809F096FA97
:10471400284602B0BDE8F08740420F003C05012066
:1047240085440020889C05207D440020F8A20520B3
:10473400F0B583B006468DF80700FFF757F84FF041
:10474400FF356FF00044174A821841F10003954287
:1047540074EB03013CBF23462A46134809F01EFAB2
:10476400124B07461C689CB1114D01E024697CB1D1
:104774002368002BFAD02B680BB19C42F6D120465B
:1047840001220DF10701FFF705FF2469002CEFD189
:1047940017B9304603B0F0BD034809F04FFA30466C
:1047A40003B0F0BD40420F003C050120889C052069
:1047B400F8A2052038B5044605F090F80123054613
:1047C4001A4620462946FFF73DFF084B1C682CB1CA
:1047D40063682BB198472469002CF9D1284638BD69
:1047E4002469002CF4D1284638BD00BF889C0520DC
:1047F40003BD00BF10B50446FFF7E6FB2346BDE842
:10480400104018474FF08071144B154A10B5596089
:104814005368D801FCD51920FEF7FAF800210446A4
:104824001920FEF7DFF84FF080714FF0000C4FF0C5
:1048340050420C4B0C4880F801C05960136DD907E5
:1048440003D420BF136DDB07FBD54FF05043214643
:10485400BDE8104019209B6DFEF7C4B800A00140CC
:104864000080014000B0014028A70520F0B50546AE
:1048740087B0192017460E46FEF7CAF800210446F1
:104884001920FEF7AFF80021CDE90465039700264F
:10489400002701224FF050438C46CDE90067029275
:1048A400A9B11A6D9507FCD5596540BF1A6DD0079B
:1048B40003D420BF1A6DD207FBD59A6D8A420BD060
:1048C4004FF0000C0DEB8C021168E9E79A6D1A6D3C
:1048D400D607FBD440BFE4E70CF1010CBCF1060F92
:1048E400F0D12146192007B0BDE8F040FEF77AB8B0
:1048F4000C4B0D4A93420ED39C4603F2F4710B4ABF
:104904009268CCF8F4070A48CCF8F837CCF8FC07DE
:104914000848FFF7ABBF4FF0FF3340F2F3719C46FA
:10492400EDE700BF000808200000082000ED00E0CB
:10493400E5460020E146002000B545F247308BB043
:10494400FFF7EEFA01220346092101A89847DDE9A1
:104954000332044912BA1BBAC1E900230BB05DF853
:1049640004FB00BF8CA705200346024A03CA186053
:10497400596070478CA70520384B2DE9F0479842C1
:1049840014BF4FF400234FF4802307460E46344DE2
:10499400344C354A2B602360956833EA0505FBD116
:1049A4000620FFF76DF939464FF0020A51F804EF7B
:1049B4004FEAD6594FEA462C01F5405863464A4619
:1049C40054460EEA0A0EC8F800A008E013EB0C03E4
:1049D40004F1020442EB0902B4F5807F03D098424B
:1049E40075EB020AF2D24FF48073C4EB042201E0A7
:1049F400012B30D0B0FBF2FC66459946A2EB0402D1
:104A040003F1FF33F4D209FB04F91D023C610224D3
:104A14003B4603263A6801F500516A4007F5805C7D
:104A240002F47F42CCF80020C1F800E07D68C8F8A9
:104A3400004053F8242B254082F0070202F0CF02F5
:104A440003F50053CCF80020B0FBF9F00D601E60B4
:104A54000C60BDE8F087A146D8E700BF000008401D
:104A64000020024000300240000002402DE9F047DF
:104A740006464FF0020906200D46FFF701F93146BC
:104A84004C4651F8047F86464FEAD55C680201F52E
:104A9400405A4FF00008034662462740CAF8009087
:104AA40007E01B1804F1020442EB0C02B4F5807F0A
:104AB40003D09E4578EB0209F3D24FF48073C4EB24
:104AC400042201E0012B1AD0BEFBF2FCAC451846CF
:104AD400A2EB040203F1FF33F4D904FB00F01B0240
:104AE4003461326801F50051534003F47F4306F505
:104AF40080563360BEFBF0F00F60BDE8F0872046BF
:104B04000023EDE770B500F02DF90C234026194C75
:104B1400FF22A3670E201849FDF7BAFF3246002191
:104B2400164804F0B3FD0125002380211348144ADC
:104B3400418445700683068782604360136042F8AF
:104B4400043C80F8213080F83B3043620D4B4FF039
:104B54000056C360C362803B836209F019F94FF4C5
:104B640080320949094B25642846E664C4F890104C
:104B7400DA6470BD0000115075DD00200CA305201F
:104B8400840010500001105010D00100002011507A
:104B940001210E20FDF726BF00220248114600F035
:104BA40001B900BF2CA30520044B197021B14FF4A7
:104BB4000032034BC3F89020704700BFC7AF0520F5
:104BC400002011500B785B0602D14B78052B00D0E6
:104BD40070474B88014ADBB21360704700001150E4
:104BE400CB782DE9F04103F0030EBEF1010FC3F3BE
:104BF40001005BD0002791F802C0344C0CF07F0216
:104C04005600898806EBDC1304EB43134FEADC15EA
:104C1400D876C1F30A0185F0010083F802C0198334
:104C24005870DF70D3008DBB2948043304EB821C19
:104C340003EB0008CCF808801F5082B3254BD20048
:104C44001344CCF80430244B3F311A6821F03F015F
:104C5400BEF1020F08BF4900114419601F4B7719B8
:104C640004EB47179942FA602BD82E4404EB461301
:104C7400D97E82F0A04282F480125B6842EA8162AB
:104C840042F000421A600120BDE8F081104804EBB4
:104C9400821C0344CCF8283040F832704AB9002210
:104CA4000F4904EB4513D9605A60ECE70020BDE8D6
:104CB400F081D20002F1A04202F58012CCF8242047
:104CC400C1E7FFF76BF9FA68CFE700BF0CA3052033
:104CD400800010500400105030A70520FF0F105022
:104CE4000001105009F054B88C4608B51146074825
:104CF4001A460CF07F034FEADC1C0CEB430C00EB70
:104D04004C1000F04FF8012008BD00BF0CA3052093
:104D140011F07F0205D100290CBF02200120064BAF
:104D24009866C909054B01EB420003EB40104FF4B0
:104D34000062002109F03CBC002011500CA30520A6
:104D440011F07F0300D17047002205485B0003EB9C
:104D5400D11300EB43106FF40061C27009F028BC5A
:104D64000CA305204FF0805209480A4908B50A4BA4
:104D740002600A609968C94311F08051FAD14FF476
:104D84008052064804F082FC0922054B5A6708BD8C
:104D94000020024000300240000002400000105099
:104DA4000000115000234FF0010C10B580F81AC018
:104DB4008282C3820161044609F0CCFB20B14FF426
:104DC4000032074BC3F89020204609F0D7FB10B1FE
:104DD4000123237710BD2046BDE8104009F00ABC2A
:104DE40000201150002070472DE9F0414FF00008D9
:104DF4001C4D044642462B781B4F1C4E0DE0336875
:104E040013EB421324D0DB682046984708F10108CD
:104E14002B785FFA88F2934206D39342A2EB030302
:104E2400EDD807EB4313EEE754220021104804F0B9
:104E34002DFC4FF0FF330E482022041D4360C4E9CB
:104E44000133E360FF21BDE8F041143004F01EBCDF
:104E54004FF0E023D3F8F03DDB0700D500BEBDE8FA
:104E6400F08100BFC6AF0520D8F30020540901200B
:104E740064120120704700BF704700BF00207047D4
:104E84000020704700207047704700BF704700BF84
:104E9400704700BF704700BF024B5878003818BFF6
:104EA4000120704764120120024B1878C0F380007F
:104EB400704700BF641201202DE9F047DFF8E49049
:104EC40099F80030FF2B55D10D4600293DD0002123
:104ED40054220646294804F0D9FB0022284C294BC9
:104EE40020461A70FEF74CF8274B28481C60284CC3
:104EF400FEF754F8204601F095FB264A264B146031
:104F040023B12648AFF30080254B18604FF0000A08
:104F1400224C53462278DFF89080214F0DE03A6806
:104F240012EB431311D05B687BB198470AF1010A75
:104F340022785FFA8AF3934211D89342EFD39B1AF3
:104F440008EB43135B68002BEFD14FF0E023D3F859
:104F5400F03DDB0700D500BE0020BDE8F087294600
:104F6400304689F80060FFF7CDFD0028EDD03046CB
:104F7400FFF70EFE0120BDE8F08700BF6412012098
:104F84005C120120C8AF0520B812012040F90020AE
:104F94002CF90020BC12012000000000C6AF05203F
:104FA4005409012048F90020D8F300202DE9F04FDE
:104FB400DFF8B0928BB099F80030FF2B00F0ED8051
:104FC400A24CA34DDFF898A2DFF89CB2266873695F
:104FD400EFF3108272B6D3E8CF0F01210028FAD183
:104FE400C3E8401F0028F6D1BFF35F8FB26130469B
:104FF40007A901F061F900237269C2E88F3FB36920
:1050040083F31088002800F0C8809DF81D30013B10
:10501400072B00F26B83DFE803F0A5AF939B8C357D
:105024000A04089B002BD1D009989847CEE79DF835
:10503400201001F07F0605EB460000EBD11090F83C
:10504400343023F0010380F8343090F8343023F006
:10505400040380F83430002E00F0A280027D9AF818
:1050640000309A4280F091807A4B1B6813EB421314
:1050740000F08C809E699DF82120099B9DF81C00FE
:10508400B047A3E79BF80030002B7FD09BF800309B
:10509400013BDBB28BF800309BF8003003F0FF00DB
:1050A400002B93D16A4F9DF81C803B7843F0010399
:1050B4003B7097F8343060F3000387F8343097F886
:1050C400343060F3820387F8343097F8353060F376
:1050D400000387F8353097F8353060F3820387F89A
:1050E400353000F05BFC9DF8203003F06002602A4C
:1050F40066D0402A76D003F01F03012B00F0B6805F
:10510400022B7BD0002B5BD1202A00F0DB81002A0C
:1051140056D19DF82130092B52D8DFE813F0A201B3
:1051240094015100B301510087015D015100520106
:10513400E5002B78D9077FF549AFFFF7ABFE45E7CC
:10514400EB78DA077FF542AF0898FFF795FE3DE765
:105154002B78D8077FF53AAF2878C0F3C000FFF763
:1051640097FE33E79DF81C00FFF73EFE00F00CFCB1
:105174009DF82030AB7029E79DF81C00FFF734FE42
:1051840000F002FCFFF782FE20E711D04FF0E0238D
:10519400D3F8F03DDC0700D500BE0BB0BDE8F08FBE
:1051A400099B9DF821209DF81C0000F00BFC0DE7E5
:1051B400294B5FE7FDF748F90246002840F0798162
:1051C4004FF0E023D3F8F03DDE0700D500BE9DF894
:1051D4001C000021FFF79CFD80219DF81C00FFF7B7
:1051E40097FDF3E61D4800F0D9FB0121404608AACB
:1051F400FFF7F8FD00287FF4E9AEE8E79DF82410F6
:1052040011F0700FDCD101F07F0607EB4600144B60
:1052140000EBD1101B78007D7600019698424FEA8E
:10522400D11600964FD340F05F810B4E002A00F058
:105234005F81706900F0B2FB01214046736908AADE
:10524400984700287FF4C2AEC1E700BFBC1201201A
:105254006412012054090120D8F30020D54C002009
:10526400C6AF052048F90020C8AF05209DF82430BA
:105274000F2BACD8AA4A3B441B79127893422DD306
:10528400A5D1A84E706900F089FB012140467369DD
:1052940008AA984700287FF499AE9DF8203013F0AF
:1052A400600694D19DF821300A3B012B8FD800F081
:1052B40075FB9DF821300A2B00F0F181404608A9C6
:1052C40000F0F0FA82E6984B1B6803EB4016002AC4
:1052D40000F00E81002E3FF47AAFAAE7924A1668D6
:1052E40016EB4316CED172E77B789DF822609E427E
:1052F40000F04C817B78002B40F0BD817E70002E45
:1053040000F04281701EC0B2FDF79EF803460028EB
:1053140000F05E814278022A40F05A81C17903F19B
:105324000906C1F340121201C1F3801142EA41128D
:105334003146387820F0300002433A705A88CDF86C
:1053440008809A180092009B8B4240F2A3814B780C
:105354000B2B00F0AE814FF0010C042B40F0388190
:105364000023009A1E46521A92B201926C4ACDF85A
:105374000CC012781DE06C4A126812EB461800F05B
:105384002781019A05930298D8F810300491984720
:10539400059B08280246049903F1010303D90198E7
:1053A400904280F0F8805E4ADEB21278B242C0F0D9
:1053B4000F81B242A6EB0202DDD85A4800EB421834
:1053C400DFE77B7840468DF81A300DF11A0201238D
:1053D40008A900F081FAF9E5BDF82200030A013BAF
:1053E400020AC0B20E2B3FF6F2AE01A151F823F02F
:1053F400F1540020915300202D550020BF5000206F
:10540400BF5000200F55002091530020BF500020B2
:10541400BF500020BF500020BF500020BF500020CC
:10542400BF500020BF500020E354002008A800F023
:10543400BBFA40469DF82210FFF7AEFB3B7843F0E1
:1054440002033B70C2E5BDF82230012B7FF4BFAEEE
:105454003B78404623F0080308A93B7000F022FA89
:10546400B4E540463B789A0802F00202C3F34013C5
:105474001343ADF81A300DF11A02022308A900F003
:105484002BFAA3E5BDF82230012B7FF4A0AE3B78C4
:10549400404643F0080308A93B7000F003FA95E581
:1054A400022A3FF487AEFFF7EDFC024600283FF4E2
:1054B4008EAE4046538808A900F00EFA00287FF407
:1054C40085AD84E69DF824300F2B3FF680AE144A58
:1054D4003B441B79127893421DD2134A166816EB8B
:1054E40043167FF4A6AE72E6002A7FF470AE00265F
:1054F4009DF8212002F0FD03012B17D0002A7FF430
:105504005FAE019B009A3B44134493F83430404609
:10551400C3F34003ADE77FF45AAE024E89E600BF01
:10552400C6AF0520D8F3002054090120BDF822306D
:10553400B3B9012A99F8000000F08880FFF7E8FB6E
:10554400019B009A3B44134493F8342042F0020236
:1055540083F8342093F8342042F0010283F8342095
:10556400002E3FF433AD706900F018FA736901211D
:1055740008AA40469847002000F010FA97F8353002
:10558400DF073FF523AD99E6FFF780FC404608A905
:1055940000F088F91AE5DDF80CC0BCF1010F00F049
:1055A4009D80BCF1000F00F08A80002391F80280F6
:1055B40004E00671D8B2844540F2818008EB030010
:1055C40057FA80F090F804E00133BEF1FF0FF0D0F9
:1055D4004FF0E023D3F8F03DDA0700D500BE4FF0DA
:1055E400E023D3F8F03DDB0700D500BE00237B7039
:1055F400EDE5FFF743FC024600287FF45AAFE6E5E9
:10560400FCF71EFF024600283FF4DAAD40461223A1
:1056140008A900F061F900287FF4D8ACD7E5FFF7BA
:105624002FFC024600283FF4D2AD4046137808A967
:1056340000F052F900287FF4C9ACC8E5BDF8241085
:10564400FCF706FF02460028EFD1C0E50293FFF7FE
:1056540077FB019A009B3A441A4492F83410029B57
:1056640063F3410182F8341092F8341063F30001BB
:1056740082F8341074E700214046FFF795FA40465B
:10568400FFF730FBBB7840460093FFF7ADFB009B70
:10569400BB7033E6DDF80880FFF7F6FB76E740469B
:1056A400012308A90DF11A028DF81A6000F014F90B
:1056B4008CE40B7891F803C019444B784DE63346DB
:1056C4000F480392019100F06FFD0E4B01991B7876
:1056D400039AB3421144BFF436AE79E7D8F8100008
:1056E400094B984208BF4FF0020C5EE74FF0E023ED
:1056F400D3F8F03DDB077FF569AC00BE66E400BF7C
:1057040078120120C6AF0520D15C00202DE9F84FA6
:105714000A9F002A40D00C461E4615464FF0000A48
:10572400DFF87C90DFF87C8018E0204698F80210BF
:1057340099F800B000F008FDE0B121465846FFF7A3
:105744004FFAF0B1A2780AF1010AD10916BF0B9BF6
:105754003A701A702278AA4514441DD06278052A3A
:105764000FD1E17801F00301B1420AD1A27812F01D
:10577400700FDAD04FF0E023D3F8F03DDA0700D50C
:1057840000BE4FF0E023D3F8F03DDB0702D4002045
:10579400BDE8F88F00BEFAE70120BDE8F88F00BF2E
:1057A40048F900206412012038B58B7813F0700F8B
:1057B40008D04FF0E023D3F8F03DDB0700D500BE5E
:1057C400002038BD074A084B0C46084691781D78DE
:1057D40000F0BAFC0028ECD021462846BDE8384049
:1057E400FFF7FEB96412012048F900200B46064A6F
:1057F40006481168DA09343203F07F0302EB4303ED
:10580400184400F05BBC00BFB812012064120120F0
:105814000B46064A06481168DA09343203F07F035E
:1058240002EB4303184400F073BC00BFB81201201C
:105834006412012010B5194801F07F0C00EB4C00F4
:1058440000EBD11090F834C01CF0010F08D04FF0D9
:10585400E023D3F8F03DDA0700D500BE002010BDE8
:1058640000F1300494F804C00D484CF0010C0078A9
:1058740084F804C0FFF738FA0028F0D14FF0E02193
:10588400227960F300022271227960F3820222718C
:10589400D1F8F03DDB07E1D500BEDFE7641201205B
:1058A40048F9002030B50B4C8C46A64605460868DE
:1058B40049680023AEE803009CF800102846C94359
:1058C400C4E90233BDE830401A4601F08001FFF715
:1058D400B1BF00BFE41101202DE9F041284F4FF082
:1058E4000008BE468C46064608684968BA60AEE8B9
:1058F4000300A7F80E801546BCF80620934228BF83
:105904001346BB819AB11C4633B3DDB197F900301D
:10591400402C28BF4024002B29DB41462346304637
:10592400184AFFF787FF68B10120BDE8F0819CF8B1
:1059340000101346C943304601F08001FFF77AFF97
:105944000028F1D14FF0E023D3F8F03DDB0700D578
:1059540000BE0020BDE8F0811A46397801F08001CC
:1059640023463046FFF766FF0028DDD1EAE72246EA
:105974002946044803F03CFF8021024AF0E700BFB7
:10598400E4110120A41101200022034BC3E90022E9
:10599400C3E902221A617047E4110120014B186126
:1059A400704700BFE411012030B40246044C0025C6
:1059B400234600685168C4E9025530BC03C37047EC
:1059C400E411012070B53D4CC90922780646B1EBBB
:1059D400D21F1D4682B017D053B14FF0E023D3F845
:1059E400F03DDB0702D4002002B070BD00BEFAE730
:1059F4002146FFF7E7F823691BB12246032130460D
:105A04009847012002B070BD94F90030002B06DBEA
:105A1400A0680028E7D02A46294903F0E9FEE08976
:105A2400A168E388284480B229448342E081A160CC
:105A340016D03F2D14D9A28994F90040131A9BB2B1
:105A4400402B28BF4023002C27DB90424FF000015D
:105A540031D01B4A3046FFF7EDFE0028D1D1BCE718
:105A6400236923B102213046144A984760B1217852
:105A74000023C94330461A4601F08001FFF7DAFEDD
:105A84000028AAD00120BDE701463046FFF740F9BF
:105A940080213046FFF73CF9B3E7904208D01A461C
:105AA4000748019303F0A4FE8021054A019BD1E736
:105AB40080210022CEE70A46CCE700BFE411012092
:105AC400A41101202DE9F0410446FFF7E5F908B9D6
